:100000000C9460000C947F000C947F000C947F0093
:100010000C947F000C947F000C947F000C947F0064
:100020000C947F000C947F000C947F000C947F0054
:100030000C947F000C947F000C947F000C947F0044
:100040000C947F000C947F000C947F000C947F0034
:100050000C947F000C947F000C947F000C947F0024
:100060000C947F000C947F000C947F000C947F0014
:100070000C947F000C947F000C947F000C947F0004
:100080000C947F000C947F000C947F00C400CB0084
:10009000DD00EF00010113012501370149015B017A
:1000A0006D017F019101E901B901BC01BF01C301EB
:1000B000C701CB01CF01D301D701DB01DF01E30190
:1000C00011241FBECFEFD0E4DEBFCDBF11E0A0E012
:1000D000B1E0E6E5F4E000E00BBF02C007900D924E
:1000E000AE30B107D9F721E0AEE0B1E001C01D921A
:1000F000A231B207E1F70E94EE010C9429020C94A0
:100100000000CF93DF9300D01F92CDB7DEB7898375
:100110007B836A8389818A3031F48A819B81BC0127
:100120008DE00E94810080EC90E0FC018081882FAE
:1001300090E080729927892BB1F386EC90E02981B9
:10014000FC01208380E090E00F900F900F90DF91F2
:10015000CF910895CF93DF93CDB7DEB78091100193
:1001600090911101CC01A0E0B0E040E050E02CE023
:1001700030E0841B950B2817390708F4E4C08A5B2C
:100180009F4FFC010C94200281E090E090931101BC
:1001900080931001D9C080910E01882339F082E04C
:1001A00090E09093110180931001CEC081E090E027
:1001B0009093110180931001C7C080910E01882394
:1001C00039F483E090E09093110180931001BCC05A
:1001D00082E090E09093110180931001B5C080916E
:1001E0000E01882339F084E090E090931101809310
:1001F0001001AAC083E090E0909311018093100158
:10020000A3C080910E01882339F485E090E090939B
:1002100011018093100198C084E090E09093110147
:100220008093100191C080910E01882339F086E0FF
:1002300090E0909311018093100186C085E090E0DA
:1002400090931101809310017FC080910E0188234B
:1002500039F487E090E0909311018093100174C00D
:1002600086E090E090931101809310016DC0809121
:100270000E01882339F088E090E09093110180937B
:10028000100162C087E090E090931101809310010B
:100290005BC080910E01882339F489E090E090934F
:1002A00011018093100150C088E090E090931101FB
:1002B0008093100149C080910E01882339F08AE0B3
:1002C00090E090931101809310013EC089E090E08E
:1002D000909311018093100137C080910E01882303
:1002E00039F48BE090E090931101809310012CC0C1
:1002F0008AE090E0909311018093100125C08091D5
:100300000E01882339F08CE090E0909311018093E6
:1003100010011AC08BE090E09093110180931001BE
:1003200013C080910E01882339F481E090E090930E
:1003300011018093100108C08CE090E090931101AE
:100340008093100101C00000809110019091110173
:10035000CC01A0E0B0E040E050E02CE030E0841BB5
:10036000950B2817390798F18D5A9F4FFC010C9473
:10037000200210920F012EC010920F012BC08FE3AC
:1003800080930F0127C08FE380930F0123C081E08A
:1003900080930F011FC081E080930F011BC080E29A
:1003A00080930F0117C080E280930F0113C087E094
:1003B00080930F010FC087E080930F010BC088E38B
:1003C00080930F0107C088E380930F0103C00000F2
:1003D00001C000000000DF91CF910895CF93DF931B
:1003E000CDB7DEB781E290E0FC01108282E290E0BE
:1003F0002FEFFC01208384E290E02FEFFC012083AB
:1004000085E290E0FC01108210921101109210011F
:1004100080E290E0FC018081882F90E08170992734
:1004200021E0892B09F020E0822F80930E010E94A9
:10043000AA0085E290E020910F01FC012083E8CF23
:10044000EE0FFF1F0024001C0BBE0790F691E02D5D
:060450000994F894FFCFAF
:0E045600000000020000000081000000000015
:00000001FF
