:100000000C9446000C9465000C9465000C946500FB
:100010000C9465000C9465000C9465000C946500CC
:100020000C9465000C9465000C9465000C946500BC
:100030000C9465000C9465000C9465000C946500AC
:100040000C9465000C9465000C9465000C9465009C
:100050000C9465000C9465000C9465000C9465008C
:100060000C9465000C9465000C9465000C9465007C
:100070000C9465000C9465000C9465000C9465006C
:100080000C9465000C9465000C94650011241FBE4F
:10009000CFEFD0E4DEBFCDBF11E0A0E0B1E0E0EDF6
:1000A000F3E000E00BBF02C007900D92AE30B10745
:1000B000D9F721E0AEE0B1E001C01D92A331B20753
:1000C000E1F70E94C0010C94E6010C940000CF936C
:1000D000DF9300D01F92CDB7DEB789837B836A831D
:1000E00089818A3031F48A819B81BC018DE00E9434
:1000F000670080EC90E0FC018081882F90E08072A6
:100100009927892BB1F386EC90E02981FC012083AB
:1001100080E090E00F900F900F90DF91CF910895C5
:10012000CF93DF93CDB7DEB780E290E0FC01808112
:10013000809580931001809111019091120182307D
:10014000910509F45CC08330910528F4009759F0BB
:10015000019779F1DAC08330910509F476C00497EC
:1001600009F499C0D2C080911001833039F483E042
:1001700090E09093120180931101C7C0809110010B
:10018000823039F482E090E0909312018093110163
:10019000BCC080911001813039F481E090E09093EF
:1001A000120180931101B1C010921201109211013D
:1001B000ACC080911001882329F410921201109292
:1001C0001101A3C080911001823039F482E090E0E7
:1001D000909312018093110198C080911001833097
:1001E00039F483E090E090931201809311018DC067
:1001F00084E090E0909312018093110186C0809179
:100200001001882329F410921201109211017DC06F
:1002100080911001813039F481E090E090931201D7
:100220008093110172C080911001833039F483E012
:1002300090E0909312018093110167C084E090E0F8
:10024000909312018093110160C080911001882366
:1002500029F4109212011092110157C080911001DF
:10026000813039F481E090E0909312018093110184
:100270004CC080911001823039F482E090E090937C
:1002800012018093110141C084E090E0909312012B
:10029000809311013AC080911001833039F483E0DA
:1002A00090E090931201809311012EC08091100173
:1002B000882329F4109212011092110125C0809117
:1002C0001001813059F480910F01823039F481E0BE
:1002D00090E0909312018093110116C0809110015B
:1002E000823059F480910F01813039F482E090E03E
:1002F000909312018093110107C084E090E09093E5
:1003000012018093110100C00000809111019091B1
:10031000120182309105D9F08330910528F40097BD
:1003200041F1019739F028C083309105E9F0049735
:1003300011F122C080910E01893028F480910E01C4
:100340008F5F80930E0181E080930F0115C0809133
:100350000E01882329F080910E01815080930E01B7
:1003600082E080930F0108C010920E0110920F01DD
:1003700003C0000001C000000000DF91CF9108958C
:10038000CF93DF93CDB7DEB781E290E0FC0110821E
:1003900082E290E02FEFFC01208387E290E02FEFD4
:1003A000FC01208388E290E0FC011082109212018F
:1003B0001092110187E080930E010E94900088E264
:1003C00090E020910E01FC012083F7CFF894FFCF3D
:0E03D0000000000200000000670000000000B6
:00000001FF
